:0400000022EF13F0E8
:08000800046ED8CF05F0E0CF33
:1000100006F00001E9CF0CF0EACF07F0E1CF08F0DD
:10002000E2CF09F0D9CF0AF0DACF0BF0F3CF12F01C
:10003000F4CF13F0FACF14F0F5CF15F0F6CF16F099
:10004000F7CF17F0F8CF18F0FBCF19F000C00EF083
:1000500001C00FF002C010F003C011F0F2AA34EF9B
:1000600000F0F2B4AEEF00F0A3AA3AEF00F0A4BAA9
:1000700072EF00F00EC000F00FC001F010C002F0EF
:1000800011C003F00CC0E9FF07C0EAFF078E08C0EB
:10009000E1FF09C0E2FF0AC0D9FF0BC0DAFF12C0BE
:1000A000F3FF13C0F4FF14C0FAFF15C0F5FF16C02C
:1000B000F6FF17C0F7FF18C0F8FF19C0FBFF045088
:1000C00006C0E0FF05C0D8FF10000400A4AAFDD7B9
:1000D0006BCF1BF06ECF01F01BA202D06B986B8828
:1000E00073EF00F0F2D701C0CCF0CC51230810E13F
:1000F000D5A10ED0D46B036AD451CD0FE96E000E9A
:100100000320EA6ECCC0EFFFD42BD591D59323D03A
:10011000D5B121D0D451060803E0CC510D0811E12E
:10012000036AD451CD0FE96E000E0320EA6ECCC0F5
:10013000EFFFD581D46BD583CC510D0801E0D59369
:100140000AD0036AD451CD0FE96E000E0320EA6E87
:10015000CCC0EFFFD42BA49A3AEF00F0D62BD72BCC
:10016000D82BD92BDA2B682BD8B4692B6A2BD8B4AF
:100170006B2B6C2BD8B46D2B6E2BD8B46F2B702BD4
:10018000D8B4712B722BD8B4732B742BD8B4752BB5
:10019000762BD8B4772B782BD8B4792B7A2BD8B48C
:1001A0007B2B7C2BD8B47D2B7E2BD8B47F2B802B44
:1001B000D8B4812B822BD8B4832B842BD8B4852B35
:1001C000862BD8B4872B882BD8B4892B8A2BD8B40C
:1001D0008B2B8C2BD8B48D2B8E2BD8B48F2B902BB4
:1001E000D8B4912B922BD8B4932B942BD8B4952BB5
:1001F000962BD8B4972B982BD8B4992B9A2BD8B48C
:100200009B2B9C2BD8B49D2B9E2BD8B49F2BA02B23
:10021000D8B4A12BA22BD8B4A32BA42BD8B4A52B34
:10022000A62BD8B4A72BD651640802E3D5870FD0EC
:10023000D597D651C7080BE2D66BDB3D01D001D074
:10024000DB2BE05301E0E007E15301E0E107D75188
:10025000C70805E2D76BDC3D01D001D0DC2BD851BB
:10026000C70805E2D86BDD3D01D001D0DD2BD951A7
:10027000C70805E2D96BDE3D01D001D0DE2BDA5193
:10028000C70805E2DA6BDF3D01D001D0DF2B850E18
:10029000D76EEE0ED66EF2943AEF00F04D6F646FAB
:1002A000204C696E686120646520436F6D616E64E7
:1002B0006F7320416374697661646F0A0D004D6F3E
:1002C000646F204C696E686120646520436F6D61C6
:1002D0006E646F7320446573616374697661646FE3
:1002E0000A0D000054656D706F20566572646520BC
:1002F0006DED6E696D6F2047315B7365675D3D2500
:10030000750A0D0054656D706F2056657264652026
:100310006DE178696D6F2047315B7365675D3D25E1
:10032000750A0D0054656D706F20496E6372656DBE
:10033000656E746F2047315B7365675D3D25750A97
:100340000D0054656D706F205665726465206DED0B
:100350006E696D6F2047325B7365675D3D25750A79
:100360000D0054656D706F205665726465206DE1F7
:1003700078696D6F204732205B7365675D3D257539
:100380000A0D000054656D706F20496E6372656DD3
:10039000656E746F204732205B7365675D3D257520
:1003A0000A0D000054656D706F20566572646520FB
:1003B0006DED6E696D6F204733205B7365675D3D42
:1003C00025750A0D000054656D706F2056657264C6
:1003D00065206DE178696D6F204733205B73656739
:1003E0005D3D25750A0D000054656D706F20496EE6
:1003F0006372656D656E746F204733205B7365674C
:100400005D3D25750A0D000054656D706F205065C7
:1004100072637572736F204731202D3E2047322062
:100420005B7365675D3D25750A0D000054656D7051
:100430006F20506572637572736F204732202D3EB6
:10044000204731205B7365675D3D25750A0D00000F
:1004500054656D706F20506572637572736F2047BD
:1004600031202D3E204733205B7365675D3D257548
:100470000A0D000054656D706F20506572637572CF
:10048000736F204733202D3E204731205B73656713
:100490005D3D25750A0D000054656D706F20506537
:1004A00072637572736F204732202D3E20473320D0
:1004B0005B7365675D3D25750A0D000054656D70C1
:1004C0006F20506572637572736F204733202D3E25
:1004D000204732205B7365675D3D25750A0D00007E
:1004E00054696D656F757420446573626C6F7175C6
:1004F00065696F3D25750A0D000044656275673DAD
:100500004465736162696C697461646F0A0D00000F
:1005100044656275673D486162696C697461646FC6
:100520000A0D0000446562756720496E707574732A
:100530003D4465736162696C697461646F0A0D00A2
:10054000446562756720496E707574733D486162D9
:10055000696C697461646F0A0D00594541523D250B
:10056000750A0D004D4F4E54483D25750A0D00008B
:10057000446174653D25750A0D004461794F6657E5
:1005800065656B3D25750A0D0000484F55523D25A8
:10059000750A0D004D494E5554453D25750A0D000F
:1005A0005345434F4E443D25750A0D00496E707505
:1005B000742031202D3E204F4E0A0D00496E70757B
:1005C000742031202D3E204F46460A0D0000496E12
:1005D00070757420322D3E204F4E0A0D0000496E7A
:1005E00070757420322D3E204F46460A0D00496E2C
:1005F00070757420332D3E204F4E0A0D0000496E59
:1006000070757420332D3E204F46460A0D00496E0A
:1006100070757420342D3E204F4E0A0D0000496E37
:1006200070757420342D3E204F46460A0D00496EE9
:1006300070757420352D3E204F4E0A0D0000496E16
:1006400070757420352D3E204F46460A0D00496EC8
:1006500070757420362D3E204F4E0A0D0000496EF5
:1006600070757420362D3E204F46460A0D00496EA7
:1006700070757420372D3E204F4E0A0D0000496ED4
:1006800070757420372D3E204F46460A0D00496E86
:1006900070757420382D3E204F4E0A0D0000496EB3
:1006A00070757420382D3E204F46460A0D00496E65
:1006B00070757420392D3E204F4E0A0D0000496E92
:1006C00070757420392D3E204F46460A0D00496E44
:1006D0007075742031302D3E204F4E0A0D00496E4A
:1006E0007075742031302D3E204F46460A0D0000B3
:1006F000496E7075742031312D3E204F4E0A0D0029
:10070000496E7075742031312D3E204F46460A0DDA
:100710000000496E7075742031322D3E204F4E0A14
:100720000D00496E7075742031322D3E204F4646C3
:100730000A0D0000496E7075742031332D3E204F34
:100740004E0A0D00496E7075742031332D3E204FD6
:1007500046460A0D0000496E7075742031342D3EF6
:10076000204F4E0A0D00496E7075742031342D3EB5
:10077000204F46460A0D0000496E707574203135D1
:100780002D3E204F4E0A0D00496E70757420313594
:100790002D3E204F46460A0D0000496E70757420AC
:1007A00031362D3E204F4E0A0D00496E7075742073
:1007B00031362D3E204F46460A0D0000496E6963D2
:1007C000696F2064652046756E63696F6E616D6543
:1007D0006E746F204F4B0A0D0000535445503D2559
:1007E000750A0D00496E746572666F6E6961202D21
:1007F000204E6F6974652E204162726972204261D9
:100800007272656972612C20506F7274E36F2050B0
:1008100030206520506F7274616F205245532E0056
:10082000566F75206361727265676172206F205424
:10083000696D6572473133004E2052657369646596
:100840006E74652E20416272697220426172726517
:10085000697261732E004361727265676172205420
:10086000696D6572473132005265736964656E74F3
:10087000652E2041627269722042617272656972EE
:1008800061206520506F7274616F205245532E00B5
:10089000566F75206361727265676172206F2054B4
:1008A000696D6572473133004368616D6164612031
:1008B00049312C20426C6F71756565690000436891
:1008C000616D61646120493120536169752C204458
:1008D00065736C6F7175656569004368616D61640E
:1008E000612049312C20426C6F717565656900008B
:1008F0004368616D61646120493120536169752CE1
:10090000204465736C6F71756565690050756C7313
:100910006F20626172726569726120646520656E24
:1009200074726164610050756C736F2062617272E1
:100930006569726120617578696C6961722E000069
:1009400050756C736F20706F7274616F20656E7478
:100950002E0050756C736F20706F7274616F20720F
:1009600065732E00010EEA6E290EE96EEF500EE05F
:10097000080E016E006A002EFED7012EFBD7190E5D
:10098000006E002EFED700D0EF2EF2D7120004002A
:1009900001010E6B0D510E5D0BE2040E0F6FFA0E8E
:1009A000296F0001DFDF01010F2FF9D70E2BF2D7DE
:1009B000000112000900F55212E0F6CF15F1F7CF51
:1009C00016F1F8CF17F1F5500400A4A8FDD76D6E0D
:1009D00015C1F6FF16C1F7FF17C1F8FFEBD71200DC
:1009E0008C9E6650050E666E6430FEE36650666A45
:1009F0006430FEE366CF28F18C8E020E0101296F70
:100A00000001B0DF000E010128A1010E016E0001FE
:100A10001200E6DF0152FDE08C9E6650030E666E0A
:100A20006430FEE317C11BF118C11CF101011D6BFD
:100A30001E6B665017C166FF6430FEE316C11BF1E2
:100A400017C11CF118C11DF11E6B665016C166FF5F
:100A50006430FEE3665015C166FF6430FEE3665005
:100A6000666A6430FEE366CF19F18C8E19C101F01D
:100A70000001120001010D51000A000103E0010A0A
:100A800005E008D08D92D58DFB6B04D08D82D59D6D
:100A9000010EFB6F01010E51000A000103E0010A83
:100AA00005E008D08D90D58FFC6B04D08D80D59F4C
:100AB000010EFC6F01010F51000A000103E0010A61
:100AC00005E008D08D848D96FD6B04D08D948D86C5
:100AD000010EFD6F1200010122512403F3CF01F03A
:100AE000F4CF00F02503F350002623512403F350E4
:100AF0000020026E0001120073DF0152FDE08C9EA7
:100B00006650060E666E6430FEE38C8E020E0101A6
:100B1000296F000127DF8C9E6650020E666E6430DE
:100B2000FEE325C129F126C12AF101012B6B2C6BB3
:100B3000665025C166FF6430FEE324C129F125C15A
:100B40002AF126C12BF12C6B665024C166FF64305C
:100B5000FEE3665023C166FF6430FEE3665027C1A2
:100B600066FF6430FEE38C8E000112000400A4A82E
:100B7000FDD76D6E1200010122530BE1230E00011F
:100B8000F5DF450EF3DF520EF1DF0D0EEFDF0AD079
:100B90000101230E0001EADF4F0EE8DF4B0EE6DF16
:100BA0000D0EE4DF120001011D6B1C6B1F6B1E6B31
:100BB000216B206B0001CF512F08D8B078D0CF51D6
:100BC0003208D8A074D0D0512F08D8B070D0D051EE
:100BD0003908D8A06CD0D1512F0869E2D151390819
:100BE00066E3D2510D0863E1300ECF5D01011E6F47
:100BF0001F6B1FC123F11EC122F1256B640E246FF0
:100C0000000169DF02C01FF101C01EF1300ED05D8E
:100C10000101206F216B21C123F120C122F1256B3D
:100C20000A0E246F000157DF02C021F101C020F13C
:100C3000010120511E2721511F23300E0001D15DDB
:100C40000101206F216B20511E251C6F21511F2196
:100C50001D6F1D511B5D27E303E11C511A5D23E34A
:100C6000036A1951E20FE96E000E0320EA6E1CC1FF
:100C7000EFFF036A1951E20FE96E000E0320EA6EDE
:100C8000EFCF27F118C126F117C125F116C124F1C4
:100C900015C123F1000130DF010E0101226F0001B7
:100CA0006ADF04D00101226B000165DF9ED0CF51C5
:100CB0002F0857E2CF51390854E3D0512F0851E2A1
:100CC000D05139084EE3D1510D084BE1300ECF5DC4
:100CD00001011E6F1F6B1FC123F11EC122F1256B85
:100CE0000A0E246F0001F7DE02C01FF101C01EF1E1
:100CF000300ED05D0101206F216B20511E251C6F2D
:100D000021511F211D6F1D511B5D27E303E11C5164
:100D10001A5D23E3036A1951E20FE96E000E032006
:100D2000EA6E1CC1EFFF036A1951E20FE96E000E73
:100D30000320EA6EEFCF27F118C126F117C125F184
:100D400016C124F115C123F10001D6DE010E010107
:100D5000226F000110DF04D00101226B00010BDFC4
:100D600044D0CF512F083DE2CF5139083AE3D0515A
:100D70000D0837E1300ECF5D0101206F216B21C1DD
:100D80001DF120C11CF11D51215D27E303E11C5120
:100D9000205D23E3036A1951E20FE96E000E032080
:100DA000EA6E1CC1EFFF036A1951E20FE96E000EF3
:100DB0000320EA6EEFCF27F118C126F117C125F104
:100DC00016C124F115C123F1000196DE010E0101C7
:100DD000226F0001D0DE04D00101226B0001CBDEC6
:100DE00004D00101226B0001C6DE12000900F6CF1B
:100DF00016F1F7CF17F1F8CF18F1F5500400A4A8B9
:100E0000FDD76D6E16C1F6FF17C1F7FF18C1F8FFC9
:100E10000101152F01D002D00001E8D70001120016
:100E200001011851016A175D03E217C100F00CD0EF
:100E3000006A080E196F173700361851005CD8B0D9
:100E4000006E0136192FF7D700011200015015C1AD
:100E500017F1640E0101186F0001E2DF00C015F107
:100E60000150300E08E1010116A30FD016B70DD0C6
:100E700016B9200E04D00101169716991681012685
:100E800001500400A4A8FDD76D6E15C117F10A0E1C
:100E9000186F0001C5DF00C015F10150300E08E1E8
:100EA000010116B70CD016A10AD016B9200E000108
:100EB000012601500400A4A8FDD76D6E0101300E7B
:100EC000152715510400A4A8FDD76D6E000112006E
:100ED000EF5211E0EACF16F1E9CF15F1EF5004001F
:100EE000A4A8FDD76D6E16C1EAFF15C1E9FFE92A76
:100EF000D8B4EA2AEDD71200C69E9E961DC1C9FF3E
:100F0000020EC6BE05D09EA6FED7000EC5BC010EC1
:100F1000016E12001CC11DF101011E6B1D5109085B
:100F200005E20A0E1D5F100E1E2703D01D511E275D
:100F300001D0F4D71EC101F00001120001011B9F76
:100F40003F0E19171A9F070E18173F0E17171F0E7F
:100F50001617C580C5B0FED7D00E1D6F0001CCDFBF
:100F600001011D6B0001C8DF1BC11CF1D3DF01C0F3
:100F70001CF101C01DF1C0DF1AC11CF1CBDF01C0A3
:100F80001CF101C01DF1B8DF19C11CF1C3DF01C0A4
:100F90001CF101C01DF1B0DF18C11CF1BBDF01C0A5
:100FA0001CF101C01DF1A8DF17C11CF1B3DF01C0A6
:100FB0001CF101C01DF1A0DF16C11CF1ABDF01C0A7
:100FC0001CF101C01DF198DF15C11CF1A3DF01C0A8
:100FD0001CF101C01DF190DF800E01011D6F0001A9
:100FE0008BDFC584C5B4FED7A7EF0CF0C69CC586C1
:100FF000C5B6FED700B0C59A00A0C58AC588C5B8D9
:10100000FED7C9CF01F012001AC11BF1D89001011F
:101010001B33780E1B171B31006E00323F0E00167B
:1010200000501B251C6F1A510F0B1C25016E00016F
:10103000120001010D6B0A0E296F000193DC230ED3
:10104000CE5DBD0FD8B01AEF0EF0430F1CEF0EF0BF
:10105000CF51230816E1D0510D0813E1D5B509D0C1
:10106000D5859C0EF66E020EF76E000EF86EA2DCB1
:1010700008D0D595BE0EF66E020EF76E000EF86E15
:1010800099DC1AEF0EF0D5A50BD00101186B176B88
:10109000166B156B196B1B6B960E1A6F000183DDB7
:1010A0001AEF0EF0D5A50CD00101186B176B166B5B
:1010B000010E156F196F1B6BFA0E1A6F000173DDAD
:1010C0001AEF0EF0D5A50CD00101186B176B166B3B
:1010D000020E156F196F1B6B190E1A6F000163DD7D
:1010E0001AEF0EF0D5A50CD00101186B176B166B1B
:1010F000030E156F196F1B6B960E1A6F000153DDEF
:101100001AEF0EF0D5A50CD00101186B176B166BFA
:10111000040E156F196F1B6BFA0E1A6F000143DD79
:101120001AEF0EF0D5A50CD00101186B176B166BDA
:10113000050E156F196F1B6B190E1A6F000133DD49
:101140001AEF0EF0D5A50CD00101186B176B166BBA
:10115000060E156F196F1B6B960E1A6F000123DDBB
:101160001AEF0EF0D5A50CD00101186B176B166B9A
:10117000070E156F196F1B6BFA0E1A6F000113DD46
:101180001AEF0EF0D5A50CD00101186B176B166B7A
:10119000080E156F196F1B6B190E1A6F000103DD16
:1011A0001AEF0EF0D5A50CD00101186B176B166B5A
:1011B000090E156F196F1B6B780E1A6F0001F3DCA7
:1011C0001AEF0EF0D5A50CD00101186B176B166B3A
:1011D0000A0E156F196F1B6B780E1A6F0001E3DC96
:1011E0001AEF0EF0D5A50CD00101186B176B166B1A
:1011F0000B0E156F196F1B6B780E1A6F0001D3DC85
:101200001AEF0EF0D5A50CD00101186B176B166BF9
:101210000C0E156F196F1B6B780E1A6F0001C3DC73
:101220001AEF0EF0D5A50CD00101186B176B166BD9
:101230000D0E156F196F1B6B780E1A6F0001B3DC62
:101240001AEF0EF0D5A50CD00101186B176B166BB9
:101250000E0E156F196F1B6B780E1A6F0001A3DC51
:101260001AEF0EF0D5A50BD00101186B176B166B9A
:101270000F0E156F196F1B6B1A69000194DC1AEFC2
:101280000EF01AEF0EF0D5A501D0FF001AEF0EF008
:10129000D5A50AD3CF515708D8A406D3D0510D08ED
:1012A000D8A402D30101186B176B166B156B0001E4
:1012B00009EC05F001C00DF1E40EF66E020EF76EBA
:1012C000000EF86E1B0E0101156F00018FDD0DC1C0
:1012D00015F11B0E0101166F0001B8DD0A0E0400A6
:1012E000A4A8FDD76D6E0D0E0400A4A8FDD76D6EE9
:1012F000020E0101296F0001B2EC04F00101186B2C
:10130000176B166B010E156F000109EC05F001C09B
:101310000DF1040EF66E030EF76E000EF86E1B0E46
:101320000101156F000162DD0DC115F11B0E0101F8
:10133000166F00018BDD0A0E0400A4A8FDD76D6EA8
:101340000D0E0400A4A8FDD76D6E020E0101296FD9
:101350000001B2EC04F00101186B176B166B020E62
:10136000156F000109EC05F001C00DF1240EF66EB9
:10137000030EF76E000EF86E190E0101156F0001D5
:1013800035DD0DC115F11B0E0101166F00015EDD8B
:101390000A0E0400A4A8FDD76D6E0D0E0400A4A8CB
:1013A000FDD76D6E020E0101296F0001B2EC04F051
:1013B0000101186B176B166B030E156F000109EC1A
:1013C00005F001C00DF1420EF66E030EF76E000E31
:1013D000F86E1B0E0101156F000108DD0DC115F13E
:1013E0001B0E0101166F000131DD0A0E0400A4A8D6
:1013F000FDD76D6E0D0E0400A4A8FDD76D6E020E14
:101400000101296F0001B2EC04F00101186B176BA8
:10141000166B040E156F000109EC05F001C00DF10B
:10142000620EF66E030EF76E000EF86E1C0E0101D2
:10143000156F0001DBDC0DC115F11B0E0101166FEC
:10144000000104DD0A0E0400A4A8FDD76D6E0D0E88
:101450000400A4A8FDD76D6E020E0101296F0001E2
:10146000B2EC04F00101186B176B166B050E156FCB
:10147000000109EC05F001C00DF1840EF66E030EBB
:10148000F76E000EF86E1A0E0101156F0001AEDC4A
:101490000DC115F11B0E0101166F0001D7DC0A0EFC
:1014A0000400A4A8FDD76D6E0D0E0400A4A8FDD7FE
:1014B0006D6E020E0101296F0001B2EC04F0010112
:1014C000186B176B166B060E156F000109EC05F013
:1014D00001C00DF1A40EF66E030EF76E000EF86E4D
:1014E0001C0E0101156F000181DC0DC115F11B0EF1
:1014F0000101166F0001AADC0A0E0400A4A8FDD7A2
:101500006D6E0D0E0400A4A8FDD76D6E020E0101D4
:10151000296F0001B2EC04F00101186B176B166B18
:10152000070E156F000109EC05F001C00DF1C60EA4
:10153000F66E030EF76E000EF86E1C0E0101156FAD
:10154000000154DC0DC115F11B0E0101166F0001E5
:101550007DDC0A0E0400A4A8FDD76D6E0D0E0400FC
:10156000A4A8FDD76D6E020E0101296F0001B2EC37
:1015700004F00101186B176B166B080E156F000154
:1015800009EC05F001C00DF1E80EF66E030EF76EE2
:10159000000EF86E1A0E0101156F000127DC0DC157
:1015A00015F11B0E0101166F000150DC0A0E04003C
:1015B000A4A8FDD76D6E0D0E0400A4A8FDD76D6E16
:1015C000020E0101296F0001B2EC04F00101186B59
:1015D000176B166B090E156F000109EC05F001C0C1
:1015E0000DF1080EF66E040EF76E000EF86E1E0E6C
:1015F0000101156F0001F6EC06F00DC115F11B0E8F
:101600000101166F000122DC0A0E0400A4A8FDD718
:101610006D6E0D0E0400A4A8FDD76D6E020E0101C3
:10162000296F0001B2EC04F00101186B176B166B07
:101630000A0E156F000109EC05F001C00DF12C0E2A
:10164000F66E040EF76E000EF86E1E0E0101156F99
:101650000001F6EC06F00DC115F11B0E0101166F2D
:10166000000126EC07F00A0E0400A4A8FDD76D6E59
:101670000D0E0400A4A8FDD76D6E020E0101296FA6
:101680000001B2EC04F00101186B176B166B0B0E26
:10169000156F000109EC05F001C00DF1500EF66E5A
:1016A000040EF76E000EF86E1E0E0101156F00019C
:1016B000F6EC06F00DC115F11B0E0101166F0001CD
:1016C00026EC07F00A0E0400A4A8FDD76D6E0D0EDF
:1016D0000400A4A8FDD76D6E020E0101296F000160
:1016E000B2EC04F00101186B176B166B0C0E156F42
:1016F000000109EC05F001C00DF1740EF66E040E48
:10170000F76E000EF86E1E0E0101156F0001F6EC6B
:1017100006F00DC115F11B0E0101166F000126EC3C
:1017200007F00A0E0400A4A8FDD76D6E0D0E04008C
:10173000A4A8FDD76D6E020E0101296F0001B2EC65
:1017400004F00101186B176B166B0D0E156F00017D
:1017500009EC05F001C00DF1980EF66E040EF76E5F
:10176000000EF86E1E0E0101156F0001F6EC06F07A
:101770000DC115F11B0E0101166F000126EC07F0DB
:101780000A0E0400A4A8FDD76D6E0D0E0400A4A8D7
:10179000FDD76D6E020E0101296F0001B2EC04F05D
:1017A0000101186B176B166B0E0E156F000109EC1B
:1017B00005F001C00DF1BC0EF66E040EF76E000EC2
:1017C000F86E1E0E0101156F0001F6EC06F00DC15A
:1017D00015F11B0E0101166F000126EC07F00A0E31
:1017E0000400A4A8FDD76D6E0D0E0400A4A8FDD7BB
:1017F0006D6E020E0101296F0001B2EC04F00101CF
:10180000186B176B166B0F0E156F000109EC05F0C6
:1018100001C00DF1E00EF66E040EF76E000EF86ECC
:10182000140E0101156F0001F6EC06F00DC115F163
:101830001B0E0101166F000126EC07F00A0E0400D2
:10184000A4A8FDD76D6E0D0E0400A4A8FDD76D6E83
:10185000020E0101296F0001B2EC04F0D5B909D0E4
:10186000FA0EF66E040EF76E000EF86EDAEC04F067
:1018700008D0100EF66E050EF76E000EF86EDAEC5C
:1018800004F0D5BB09D0240EF66E050EF76E000EDF
:10189000F86EDAEC04F008D0400EF66E050EF76E26
:1018A000000EF86EDAEC04F0C5D1D5A515D0CF51F5
:1018B000530812E1D0510D080FE1EA6A220EE96ED9
:1018C00068EC07F0EA6A450EE96E68EC07F0EA6A30
:1018D000590EE96E68EC07F0ADD1D5A50FD0CF5108
:1018E000300805E1D0510D0802E1D59907D0CF515C
:1018F000310804E1D0510D0801E1D5899BD1D5A56E
:101900000FD0CF51300805E1D0510D0802E1D59B31
:1019100007D0CF51310804E1D0510D0801E1D58B3A
:1019200089D1D5A514D0CF510D0811E1110E0101B7
:10193000156F040E166F190E176F020E186F120E28
:10194000196F1E0E1A6F1B6B00019EEF07F072D10C
:10195000D5A5CCD0CF510D08D8A4C8D0C580C5B06E
:10196000FED7D00E01011D6F00017CEC07F0030EC5
:1019700001011D6F00017CEC07F0C582C5B2FED7E6
:10198000D10E01011D6F00017CEC07F0010E006E0D
:10199000F6EC07F001507F0B0101156F1A6F000183
:1019A00004EC08F001C011F1010E006EF6EC07F036
:1019B00001503F0B0101156F1A6F000104EC08F094
:1019C00001C010F1010E006EF6EC07F001501F0B84
:1019D0000101156F1A6F000104EC08F001C00FF14E
:1019E000006AF6EC07F001C015F101C01AF104EC31
:1019F00008F001C00EF1C584C5B4FED75A0EF66ECC
:101A0000050EF76E000EF86E050E0101156F000150
:101A1000F6EC06F00EC115F11B0E0101166F000168
:101A200026EC07F00A0E0400A4A8FDD76D6E0D0E7B
:101A30000400A4A8FDD76D6E640EF66E050EF76E59
:101A4000000EF86E060E0101156F0001F6EC06F0AF
:101A50000FC115F11B0E0101166F000126EC07F0F6
:101A60000A0E0400A4A8FDD76D6E0D0E0400A4A8F4
:101A7000FDD76D6E700EF66E050EF76E000EF86EE9
:101A8000050E0101156F0001F6EC06F010C115F10D
:101A90001B0E0101166F000126EC07F00A0E040070
:101AA000A4A8FDD76D6E0D0E0400A4A8FDD76D6E21
:101AB0007A0EF66E050EF76E000EF86E0A0E010134
:101AC000156F0001F6EC06F011C115F11B0E0101B6
:101AD000166F000126EC07F00A0E0400A4A8FDD73B
:101AE0006D6E0D0E0400A4A8FDD76D6EA3D0D5A514
:101AF000A1D0CF510D08D8A49DD0C580C5B0FED7C8
:101B0000D00E01011D6F00017CEC07F001011D6B7F
:101B100000017CEC07F0C582C5B2FED7D10E0101F1
:101B20001D6F00017CEC07F0010E006EF6EC07F073
:101B300001507F0B0101156F1A6F000104EC08F0D2
:101B400001C014F1010E006EF6EC07F001507F0B9E
:101B50000101156F1A6F000104EC08F001C013F1C8
:101B6000006AF6EC07F001503F0B0101156F1A6F88
:101B7000000104EC08F001C012F1C584C5B4FED721
:101B80008A0EF66E050EF76E000EF86E050E010158
:101B9000156F0001F6EC06F012C115F11B0E0101E4
:101BA000166F000126EC07F00A0E0400A4A8FDD76A
:101BB0006D6E0D0E0400A4A8FDD76D6E940EF66E2A
:101BC000050EF76E000EF86E070E0101156F00018D
:101BD000F6EC06F013C115F11B0E0101166F0001A2
:101BE00026EC07F00A0E0400A4A8FDD76D6E0D0EBA
:101BF0000400A4A8FDD76D6EA00EF66E050EF76E5C
:101C0000000EF86E070E0101156F0001F6EC06F0EC
:101C100014C115F11B0E0101166F000126EC07F02F
:101C20000A0E0400A4A8FDD76D6E0D0E0400A4A832
:101C3000FDD76D6EF2EF14F0E824F76AF736590F0E
:101C4000F66E1C0EF722000EF86EFB6E0A00F550C1
:101C5000FA6E0800F550F96E5010341C341C341C18
:101C6000341C341C341C341C341C341C341C341CF4
:101C7000341C341C341C341C341C341C341C341CE4
:101C8000341C341C341C341C341C341C341C341CD4
:101C9000341C341C8610A410C410E4100411241148
:101CA000441164118411A411C411E411041224120A
:101CB00044126412821286129012341C341CAA1828
:101CC000341C341C341C341C341C341C341C341C94
:101CD000341C341CDA18FE1822195019EE1A0400AC
:101CE000A85103E0010A08E021D081B204D0696B59
:101CF000686B010EA86F1AD0695309E16851090891
:101D000006E381A203D0A86B696B686B0FD0D5ABDB
:101D10000AD0C8B108D0AC0EF66E050EF76E000EF4
:101D2000F86EDAEC04F0C881C981A86BA95103E010
:101D3000010A08E020D081A204D06B6B6A6B010E0F
:101D4000A96F19D06B5309E16A51090806E381B202
:101D500003D0A96B6B6B6A6B0ED0D5AB0AD0C8A150
:101D600008D0BC0EF66E050EF76E000EF86EDAECBB
:101D700004F0C891A96BAA5103E0010A08E021D040
:101D800081B404D06D6B6C6B010EAA6F1AD06D53C9
:101D900009E16C51090806E381A403D0AA6B6D6BBD
:101DA0006C6B0FD0D5AB0AD0C8B308D0CE0EF66E90
:101DB000050EF76E000EF86EDAEC04F0C883C983E6
:101DC000AA6BAB5103E0010A08E020D081A404D043
:101DD0006F6B6E6B010EAB6F19D06F5309E16E51D3
:101DE000090806E381B403D0AB6B6F6B6E6B0ED04A
:101DF000D5AB0AD0C8A308D0DE0EF66E050EF76E7E
:101E0000000EF86EDAEC04F0C893AB6BAC5103E053
:101E1000010A08E021D083B204D0716B706B010E0F
:101E2000AC6F1AD0715309E17051090806E383A21F
:101E300003D0AC6B716B706B0FD0D5AB0AD0C8B54B
:101E400008D0EE0EF66E050EF76E000EF86EDAECA8
:101E500004F0C885C985AC6BAD5103E0010A08E008
:101E600020D083A204D0736B726B010EAD6F19D0BA
:101E7000735309E17251090806E383B203D0AD6BD5
:101E8000736B726B0ED0D5AB0AD0C8A508D0FE0E0E
:101E9000F66E050EF76E000EF86EDAEC04F0C895DB
:101EA000AD6BAE5103E0010A08E021D083B404D049
:101EB000756B746B010EAE6F1AD0755309E17451D6
:101EC000090806E383A403D0AE6B756B746B0FD067
:101ED000D5AB0AD0C8B708D00E0EF66E060EF76E58
:101EE000000EF86EDAEC04F0C887C987AE6BAF510C
:101EF00003E0010A08E020D083A404D0776B766B5E
:101F0000010EAF6F19D0775309E17651090806E346
:101F100083B403D0AF6B776B766B0ED0D5AB0AD0A2
:101F2000C8A708D01E0EF66E060EF76E000EF86EED
:101F3000DAEC04F0C897AF6BB05103E0010A08E097
:101F400021D083B604D0796B786B010EB06F1AD0B4
:101F5000795309E17851090806E383A603D0B06BF1
:101F6000796B786B0FD0D5AB0AD0C8B908D02E0EDC
:101F7000F66E060EF76E000EF86EDAEC04F0C88905
:101F8000C989B06BB15103E0010A08E020D083A6F3
:101F900004D07B6B7A6B010EB16F19D07B5309E1D2
:101FA0007A51090806E383B603D0B16B7B6B7A6B79
:101FB0000ED0D5AB0AD0C8A908D03E0EF66E060EDC
:101FC000F76E000EF86EDAEC04F0C899B16BB251FE
:101FD00003E0010A08E021D081B604D07D6B7C6B60
:101FE000010EB26F1AD07D5309E17C51090806E356
:101FF00081A603D0B26B7D6B7C6B0FD0D5AB0AD0C2
:10200000C8BB08D04E0EF66E060EF76E000EF86EC8
:10201000DAEC04F0C88BC98BB26BB35103E0010A50
:1020200008E020D081A604D07F6B7E6B010EB36FD9
:1020300019D07F5309E17E51090806E381B603D028
:10204000B36B7F6B7E6B0ED0D5AB0AD0C8AB08D01C
:102050005E0EF66E060EF76E000EF86EDAEC04F009
:10206000C89BB36BB45103E0010A08E021D081B8EA
:1020700004D0816B806B010EB46F1AD0815309E1DB
:102080008051090806E381A803D0B46B816B806B93
:102090000FD0D5AB0AD0C8BD08D06E0EF66E060EB6
:1020A000F76E000EF86EDAEC04F0C88DC98DB46BD3
:1020B000B55103E0010A08E020D081A804D0836B69
:1020C000826B010EB56F19D0835309E18251090863
:1020D00006E381B803D0B56B836B826B0ED0D5ABB2
:1020E0000AD0C8AD08D07E0EF66E060EF76E000E52
:1020F000F86EDAEC04F0C89DB56BB65103E0010A46
:1021000008E021D081BA04D0856B846B010EB66FD4
:102110001AD0855309E18451090806E381AA03D046
:10212000B66B856B846B0FD0D5AB0AD0C8BF08D017
:102130008E0EF66E060EF76E000EF86EDAEC04F0F8
:10214000C88FC98FB66BB75103E0010A08E020D0F1
:1021500081AA04D0876B866B010EB76F19D08753A5
:1021600009E18651090806E381BA03D0B76B876B92
:10217000866B0ED0D5AB0AD0C8AF08D09E0EF66ED7
:10218000060EF76E000EF86EDAEC04F0C89FB76B1F
:10219000B85103E0010A08E021D080A404D0896B83
:1021A000886B010EB86F1AD0895309E1885109086C
:1021B00006E380B403D0B86B896B886B0FD0D5ABC6
:1021C0000AD0CAB108D0AE0EF66E060EF76E000E3B
:1021D000F86EDAEC04F0CA81CB81B86BB95103E038
:1021E000010A08E020D080B404D08B6B8A6B010E0A
:1021F000B96F19D08B5309E18A51090806E380A40D
:1022000003D0B96B8B6B8A6B0ED0D5AB0AD0CAA149
:1022100008D0BE0EF66E060EF76E000EF86EDAEC03
:1022200004F0CA91B96BBA5103E0010A08E021D069
:1022300080AA04D08D6B8C6B010EBA6F1AD08D53AF
:1022400009E18C51090806E380BA03D0BA6B8D6BA3
:102250008C6B0FD0D5AB0AD0CAB308D0CE0EF66EB9
:10226000060EF76E000EF86EDAEC04F0CA83CB832C
:10227000BA6BBB5103E0010A08E020D080BA04D059
:102280008F6B8E6B010EBB6F19D08F5309E18E518E
:10229000090806E380AA03D0BB6B8F6B8E6B0ED050
:1022A000D5AB0AD0CAA308D0DE0EF66E060EF76EC6
:1022B000000EF86EDAEC04F0CA93BB6BBC5103E07D
:1022C000010A08E021D085A004D0916B906B010E2B
:1022D000BC6F1AD0915309E19051090806E385B00B
:1022E00003D0BC6B916B906B0FD0D5AB0AD0CAB545
:1022F00008D0F00EF66E060EF76E000EF86EDAECF1
:1023000004F0CA85CB85BC6BBD5103E0010A08E02F
:1023100020D085B004D0936B926B010EBD6F19D0A5
:10232000935309E19251090806E385A003D0BD6BE0
:10233000936B926B0ED0D5AB0AD0CAA508D0000E15
:10234000F66E070EF76E000EF86EDAEC04F0CA9522
:10235000BD6BBE5103E0010A08E021D085AA04D07C
:10236000956B946B010EBE6F1AD0955309E1945191
:10237000090806E385BA03D0BE6B956B946B0FD04A
:10238000D5AB0AD0CAB708D0120EF66E070EF76E9C
:10239000000EF86EDAEC04F0CA87CB87BE6BBF5133
:1023A00003E0010A08E020D085BA04D0976B966B51
:1023B000010EBF6F19D0975309E19651090806E342
:1023C00085AA03D0BF6B976B966B0ED0D5AB0AD0A6
:1023D000CAA708D0220EF66E070EF76E000EF86E32
:1023E000DAEC04F0CA97BF6BC05103E0010A08E0C1
:1023F00021D085A804D0996B986B010EC06F1AD0BC
:10240000995309E19851090806E385B803D0C06BD8
:10241000996B986B0FD0D5AB0AD0CAB908D0340EDF
:10242000F66E070EF76E000EF86EDAEC04F0CA894D
:10243000CB89C06BC15103E0010A08E020D085B808
:1024400004D09B6B9A6B010EC16F19D09B5309E1AD
:102450009A51090806E385A803D0C16B9B6B9A6B60
:102460000ED0D5AB0AD0CAA908D0440EF66E070E1E
:10247000F76E000EF86EDAEC04F0CA99C16BC25127
:1024800003E0010A08E021D085A604D09D6B9C6B77
:10249000010EC26F1AD09D5309E19C51090806E351
:1024A00085B603D0C26B9D6B9C6B0FD0D5AB0AD0A9
:1024B000CABB08D0560EF66E070EF76E000EF86E09
:1024C000DAEC04F0CA8BCB8BC26BC35103E0010A78
:1024D00008E020D085B604D09F6B9E6B010EC36FC1
:1024E00019D09F5309E19E51090806E385A603D040
:1024F000C36B9F6B9E6B0ED0D5AB0AD0CAAB08D016
:10250000660EF66E070EF76E000EF86EDAEC04F04B
:10251000CA9BC36BC45103E0010A08E021D085A423
:1025200004D0A16BA06B010EC46F1AD0A15309E1B6
:10253000A051090806E385B403D0C46BA16BA06B5E
:102540000FD0D5AB0AD0CABD08D0780EF66E070EF4
:10255000F76E000EF86EDAEC04F0CA8DCB8DC46B0A
:10256000C55103E0010A08E020D085B404D0A36B74
:10257000A26B010EC56F19D0A35309E1A25109083E
:1025800006E385A403D0C56BA36BA26B0ED0D5ABBD
:102590000AD0CAAD08D0880EF66E070EF76E000E90
:1025A000F86EDAEC04F0CA9DC56BC65103E0010A6F
:1025B00008E021D085A204D0A56BA46B010EC66FE4
:1025C0001AD0A55309E1A451090806E385B203D046
:1025D000C66BA56BA46B0FD0D5AB0AD0CABF08D011
:1025E0009A0EF66E070EF76E000EF86EDAEC04F037
:1025F000CA8FCB8FC66BC75103E0010A08E020D019
:1026000085B204D0A76BA66B010EC76F19D0A75374
:1026100009E1A651090806E385A203D0C76BA76BA1
:10262000A66B0ED0D5AB0AD0CAAF08D0AA0EF66EF4
:10263000070EF76E000EF86EDAEC04F0CA9FC76B57
:10264000F5EF14F0F86AD09E078E1B6A7C86450E63
:102650006F6E010E7D6EA60E6C6E900E6B6E948684
:1026600094883E0EC86E280EC66EC78EC79C696BD6
:10267000686B6B6B6A6B6D6B6C6B6F6B6E6B716B9E
:10268000706B736B726B756B746B776B766B796B4E
:10269000786B7B6B7A6B7D6B7C6B7F6B7E6B816BFE
:1026A000806B836B826B856B846B876B866B896BAE
:1026B000886B8B6B8A6B8D6B8C6B8F6B8E6B916B5E
:1026C000906B936B926B956B946B976B966B996B0E
:1026D000986B9B6B9A6B9D6B9C6B9F6B9E6BA16BBE
:1026E000A06BA36BA26BA56BA46BA76BA66BA86B6F
:1026F000A96BAA6BAB6BAC6BAD6BAE6BAF6BB06B1E
:10270000B16BB26BB36BB46BB56BB66BB76BB86BCD
:10271000B96BBA6BBB6BBC6BBD6BBE6BBF6BC06B7D
:10272000C16BC26BC36BC46BC56BC66BC76BC89107
:10273000C893C895C897C899C89BC89DC89FC99198
:10274000C993C995C997C999C99BC99DC99FCA9180
:10275000CA93CA95CA97CA99CA9BCA9DCA9FCB9168
:10276000CB93CB95CB97CB99CB9BCB9DCB9FCC6B76
:10277000D46BD581D593D595D66BD76BD86BD96BE8
:10278000DA6BDB6BDC6BDD6BDE6BDF6BE06BE16B05
:10279000D597FB6BFC6BFD6BFE6BD599D59BD59DDF
:1027A000D59FFF91FF93FF950101016B006BC15015
:1027B000C00BC16E070EB46E25D002001C000021B4
:1027C000002253572075504C4320436F6E74696E3E
:1027D000656E746520426F63616765202D204C58DB
:1027E0000D0A000E004556657273616F2056302E3B
:1027F000380D0A000B005932352D30352D31370D8B
:102800000A000000000EF86E270EF76EBA0EF66E84
:102810000900F550006E000A13E00900F550016E42
:10282000E8BE05D00F0BEA6E0900F5CFE9FF01BC49
:10283000090001AC0900F5CFEEFF004EE9D7F9D74A
:10284000F86A056B066B076B086B04930495049795
:102850000499049B049D049F099109930995099784
:102860000999099B099D099F0A910A930A950A975C
:102870000A990A9B0A9D0A9F0B910B930B950B9744
:102880000B990B9B0B9D0B9F0C910C930C953C0E85
:10289000926E3E0E936E2E0E956E000E966E3F0E4D
:1028A000976EFF0E996E0F0E9A6EC290C150C00BBC
:1028B0000F09C16ED1800400880ED56E850ED76ECB
:1028C000EE0ED66EF28AA38AC00EF212850ED76E75
:1028D000EE0ED66E94908B8094928B928E9E639A1D
:1028E000210E636E400E646E8C8E0400949A8B8A67
:1028F0008A80FB0E8D6E010E0D6F0001C7EC04F097
:10290000040098988F8898968F8698908F809494DA
:102910008B840400040E01010D6FFA0E296F000173
:10292000B2EC04F001010D2FF8D7040098988F98AD
:1029300098968F9698908F9094948B94BC0EF66E88
:10294000070EF76E000EF86E0001DAEC04F0FB0ED5
:102950008D6E010103910393039503970399039BE4
:10296000039D039F0491056B0551180821E3036A39
:102970000551E20F016E000E032201C00DF103C0EC
:102980000EF1186B176B166B05C115F1000109EC00
:1029900005F00EC1EAFF0DC1E9FF01C0EFFF020E15
:1029A0000101296F0001B2EC04F00101052BDCD715
:1029B000010E0D6F0001C7EC04F0DBC008F101014E
:1029C0000D6B010E0E6F0F6F00013AEC05F0040065
:1029D000D5A309D0320E0101296F0001B2EC04F039
:1029E00019EF08F0D5936FEF0EF00400DB510101F1
:1029F000085D24E00001D5A91ED0DA0EF66E070EA0
:102A0000F76E000EF86E050E0101156F0001F6EC71
:102A100006F0FEC015F11B0E0101166F000126EC39
:102A200007F00A0E0400A4A8FDD76D6E0D0E040079
:102A3000A4A8FDD76D6EDBC008F101010001C8A19B
:102A40001FD0C8AF1DD001010AA702D0000118D0C5
:102A50000001D5AD15D0FF8501010A870001D5A978
:102A600008D0E40EF66E070EF76E000EF86EDAEC84
:102A700004F001010B870B830B890C831CD0000130
:102A8000C8B118D001010AB702D0000113D0EDC0BF
:102A9000E1F00001D5A908D0200EF66E080EF76E01
:102AA000000EF86EDAEC04F001010A970C950C9315
:102AB0000001FF9501010001C8A120D0CAA91ED0C4
:102AC00001010AA302D0000119D00001D5AD16D032
:102AD000FFB514D001010A830A8F0001D5A908D0DF
:102AE000380EF66E080EF76E000EF86EDAEC04F093
:102AF00001010B870B850C8318D00001C8B116D0DB
:102B000001010AB302D0000111D00001D5A908D0FB
:102B1000560EF66E080EF76E000EF86EDAEC04F044
:102B2000EBC0E0F001010A930C950001C8A11DD093
:102B3000CAA71BD001010AA502D0000116D00001CE
:102B4000D5AD13D001010A850001D5A908D0680EC2
:102B5000F66E080EF76E000EF86EDAEC04F0010166
:102B60000B870B890C8319D00001C8B117D0010164
:102B70000AB502D0000112D0EDC0E1F00001D5A9E4
:102B800008D0900EF66E080EF76E000EF86EDAECB6
:102B900004F001010A950C950C930001C8A106D020
:102BA000D5AD04D0FFB102D08D98FF81C8B104D05B
:102BB000FFA102D08D88FF91C8A306D0D5AF04D065
:102BC000FFB302D08D9AFF83C8B304D0FFA302D015
:102BD0008D8AFF93C8AD08D001010AAB02D0000175
:102BE00003D00B890A8B0001C8BD03D001010A9BE9
:102BF0000001C8A909D001010AAD02D0000104D02A
:102C00000B830B870A8D0001C8B903D001010A9D0F
:102C10000001C8A70CD001010ABF02D0000107D0F3
:102C20000BA102D0000103D00B850B810001C8B7B6
:102C300008D001010BB102D0000103D00A9F0B9113
:102C40000001FE51F70FD8B03AD1090FE9EF17F0A4
:102C5000E451E25DDB5D09E3C991010EFE6FE451D1
:102C6000E25D0101066F0001DB6B29D1E451DB5D00
:102C700026E3E4510101062706510001E35D02E36A
:102C8000C9B11BD0C9B302D0C9A517D0C9A303D0FD
:102C9000020EFE6F05D0050EFE6F0101076B0001ED
:102CA000DB6B010E01010D6F0E6F0F6F00013AEC2F
:102CB00005F001010A9904D00001DB6BC991010103
:102CC0000001FDD0DB51040810E3C8A10ED00101C2
:102CD0000A890001D58DD5A908D0A80EF66E080E78
:102CE000F76E000EF86EDAEC04F0C8B115D0DB51C7
:102CF000040812E201010AB902D000010DD00A99BC
:102D00000001D59DD5A908D0BE0EF66E080EF76E4F
:102D1000000EF86EDAEC04F0E0530DE1E1530BE144
:102D2000CAB509D001010AA902D0000104D00001EE
:102D3000DB51040803E3F151DB5D0BE3030EFE6F8F
:102D4000DB6B010E01010D6F0E6B0F6F00013AEC92
:102D500005F0B5D0E751E55DDB5D09E3C993040EED
:102D6000FE6FE751E55D0101066F0001DB6BA7D047
:102D7000E751DB5D20E3E751010106270651000121
:102D8000E65D02E3C9B315D0C9A505D0050EFE6FF7
:102D9000EFC007F104D0080EFE6FECC007F1DB6B4B
:102DA000010E01010D6F0E6F0F6F00013AEC05F07F
:102DB00002D0DB6BC99383D0DB51040810E3C8A1B8
:102DC0000ED001010A890001D58DD5A908D0DA0EEF
:102DD000F66E080EF76E000EF86EDAEC04F0C8B16D
:102DE00015D0DB51040812E201010AB902D000013A
:102DF0000DD00A990001D59DD5A908D0F00EF66E28
:102E0000080EF76E000EF86EDAEC04F0E1530EE1F6
:102E100001010AA902D0000109D00001DB51040818
:102E200005E2010107510001DB5D03E2F151DB5DC9
:102E30000BE3060EFE6FDB6B010E01010D6F0E6FD3
:102E40000F6B00013AEC05F03AD0EA51E85DDB5D2A
:102E500009E3C995070EFE6FEA51E85D0101066FAF
:102E60000001DB6B2CD0EA51DB5D19E3EA51010173
:102E7000062706510001E95D02E3C9B50ED0080E30
:102E8000FE6FEEC007F1DB6B010E01010D6F0E6FDF
:102E90000F6F00013AEC05F002D0DB6BC9950FD043
:102EA000010107510001DB5D0AE3FE6BDB6B0101F1
:102EB0000D6B010E0E6F0F6F00013AEC05F0010172
:102EC0000BA313D00001D5A908D00C0EF66E090E85
:102ED000F76E000EF86EDAEC04F001010B8B8A90AD
:102EE0000001DC6BD76B01010B930BAB0AD0000127
:102EF000DC510108D8A002D0010103D08A80010171
:102F00000B9B0BA514D00001D5A908D0260EF66E98
:102F1000090EF76E000EF86EDAEC04F001010B8D6D
:102F2000949A8B9A0001DD6BD86B01010B950BAD68
:102F30000BD00001DD510108D8A002D0010104D05E
:102F4000949A8B8A01010B9D0BA713D00001D5A980
:102F500008D0400EF66E090EF76E000EF86EDAEC31
:102F600004F001010B8F8D9C0001DE6BD96B010118
:102F70000B970BAF0AD00001DE510108D8A002D098
:102F8000010103D08D8C01010B9F0BA913D000010F
:102F9000D5A908D0520EF66E090EF76E000EF86E27
:102FA000DAEC04F001010C818D9E0001DF6BDA6B1D
:102FB00001010B990CA10AD00001DF510108D8A032
:102FC00002D0010103D08D8E01010C91000100D5CA
:102FD0000300E824F76AF736F30FF66E2F0EF72298
:102FE000000EF86EFB6E0A00F550FA6E0800F55000
:102FF000F96E502C6C2CC42C542D702DB82D4A2EEB
:04300000662EA02E6A
:020000040001F9
:06FFF800A1F0C4FDF8F3C6
:00000001FF
;PIC18F97J60
;CRC=BE36  CREATED="12-Set-17 12:01"
